:100000000C9446000C9458000C9458000C94580022
:100010000C9458000C9458000C9458000C94580000
:100020000C9458000C9458000C9458000C945800F0
:100030000C9458000C9458000C9458000C946100D7
:100040000C9458000C9458000C9458000C945800D0
:100050000C9458000C9458000C9458000C945800C0
:100060000C9458000C9458000C9458000C945800B0
:100070000C9458000C9458000C9458000C945800A0
:100080000C9458000C9458000C94580011241FBE76
:10009000CFEFD0E1DEBFCDBF21E0A0E0B1E001C0F5
:1000A0001D92A130B207E1F70E947C000C948300FE
:1000B0000C9400008EE083BF82E087BF87E481BF9D
:1000C00008951F920F920FB60F9211248F939F9352
:1000D000809100018F5F80930001883230F0109290
:1000E000000198B381E0892788BB9F918F910F9081
:1000F0000FBE0F901F90189517BA81E088BB0E9421
:0A0100005A007894FFCFF894FFCF67
:00000001FF
