S01F000041546D65676136345F54696D6572305F4661737450574D2E73726563FB
S11300000C9446000C9450000C9450000C94500036
S11300100C9450000C9450000C9450000C9450001C
S11300200C9450000C9450000C9450000C9450000C
S11300300C9450000C9450000C9450000C945000FC
S11300400C9450000C9450000C9450000C945000EC
S11300500C9450000C9450000C9450000C945000DC
S11300600C9450000C9450000C9450000C945000CC
S11300700C9450000C9450000C9450000C945000BC
S11300800C9450000C9450000C94500011241FBE8A
S1130090CFEFD0E1DEBFCDBF0E9459000C945C00CD
S11300A00C9400008EE683BF80E881BF80E187BBAB
S10F00B008950E945200FFCFF894FFCF87
S9030000FC
